{
  "contractName": "DappToken",
  "abi": [
    {
      "inputs": [],
      "payable": false,
      "stateMutability": "nonpayable",
      "type": "constructor"
    },
    {
      "constant": true,
      "inputs": [],
      "name": "totalSupply",
      "outputs": [
        {
          "internalType": "uint256",
          "name": "",
          "type": "uint256"
        }
      ],
      "payable": false,
      "stateMutability": "view",
      "type": "function"
    }
  ],
  "bytecode": "0x6080604052348015600f57600080fd5b50620f42406000819055506084806100286000396000f3fe6080604052348015600f57600080fd5b506004361060285760003560e01c806318160ddd14602d575b600080fd5b60336049565b6040518082815260200191505060405180910390f35b6000548156fea265627a7a72315820e3c042ec0ac730627b496b6c1d8e9bcc7f32de6586d87db9d5ce7b65ad3f53c464736f6c63430005100032",
  "source": "pragma solidity >=0.4.2 <0.8.0;\r\n\r\ncontract DappToken{\r\n    //constructor\r\n    //set the total number of tokens\r\n    //read the total number of tokens\r\n    uint256 public totalSupply;\r\n\r\n    constructor() public {\r\n        totalSupply = 1000000;\r\n    }\r\n}\r\n",
  "sourcePath": "C:/Users/HIGHVOLT/Documents/dapp/token_sale/contracts/DappToken.sol",
  "compiler": {
    "name": "solc",
    "version": "0.5.16+commit.9c3226ce.Emscripten.clang"
  },
  "schemaVersion": "3.2.3",
  "updatedAt": "2021-03-04T09:32:26.595Z",
  "networkType": "ethereum",
  "devdoc": {
    "methods": {}
  },
  "userdoc": {
    "methods": {}
  }
}